{
  "transactions": [
    {
      "hash": "0x4cf5c8eafc79b21893bbee9aaa2db6d57854b1b8c8aa9f85b8c1fea94ed256fe",
      "transactionType": "CALL",
      "contractName": null,
      "contractAddress": "0x75faf114eafb1bdbe2f0316df893fd58ce46aa4d",
      "function": "approve(address,uint256)",
      "arguments": [
        "0x844bc19AEB38436131c2b4893f5E0772162F67d6",
        "8000000"
      ],
      "transaction": {
        "from": "0x90f51a05bd8dac2d8a5b10c2930bd8415416515a",
        "to": "0x75faf114eafb1bdbe2f0316df893fd58ce46aa4d",
        "gas": "0xc47b",
        "value": "0x0",
        "input": "0x095ea7b3000000000000000000000000844bc19aeb38436131c2b4893f5e0772162f67d600000000000000000000000000000000000000000000000000000000007a1200",
        "nonce": "0x16",
        "chainId": "0x66eee"
      },
      "additionalContracts": [],
      "isFixedGasLimit": false
    },
    {
      "hash": "0x98ecee933ec74a0974278f700e6941b2a8fb6203accd58d89aaa22cffb313063",
      "transactionType": "CALL",
      "contractName": null,
      "contractAddress": "0x844bc19aeb38436131c2b4893f5e0772162f67d6",
      "function": "deposit(uint256,address)",
      "arguments": [
        "8000000",
        "0x90F51A05bD8DaC2d8A5b10c2930BD8415416515a"
      ],
      "transaction": {
        "from": "0x90f51a05bd8dac2d8a5b10c2930bd8415416515a",
        "to": "0x844bc19aeb38436131c2b4893f5e0772162f67d6",
        "gas": "0x1ae42",
        "value": "0x0",
        "input": "0x6e553f6500000000000000000000000000000000000000000000000000000000007a120000000000000000000000000090f51a05bd8dac2d8a5b10c2930bd8415416515a",
        "nonce": "0x17",
        "chainId": "0x66eee"
      },
      "additionalContracts": [],
      "isFixedGasLimit": false
    }
  ],
  "receipts": [
    {
      "status": "0x1",
      "cumulativeGasUsed": "0x1febd",
      "logs": [
        {
          "address": "0x75faf114eafb1bdbe2f0316df893fd58ce46aa4d",
          "topics": [
            "0x8c5be1e5ebec7d5bd14f71427d1e84f3dd0314c0f7b2291e5b200ac8c7c3b925",
            "0x00000000000000000000000090f51a05bd8dac2d8a5b10c2930bd8415416515a",
            "0x000000000000000000000000844bc19aeb38436131c2b4893f5e0772162f67d6"
          ],
          "data": "0x00000000000000000000000000000000000000000000000000000000007a1200",
          "blockHash": "0xa75a7fbb4361b2f5aae979db5b8c7707c67661b2cb1dafeb6bab445e34b3bb9a",
          "blockNumber": "0xcd99591",
          "blockTimestamp": "0x6918e5c3",
          "transactionHash": "0x4cf5c8eafc79b21893bbee9aaa2db6d57854b1b8c8aa9f85b8c1fea94ed256fe",
          "transactionIndex": "0x2",
          "logIndex": "0x2",
          "removed": false
        }
      ],
      "logsBloom": "0x00000000000000000000000000000000000000000000000000000000000000000000000000000000000000000000000000000000000000000004000000200000804000000000000000000000000000000000000000000000000000000000000000010000010000000000000000000000000000000000000000000010000000000000000000000000000080000000000000000000000000000000000000000000020000000000000000000000000000000000000000000000000000000000000000000000000000000000000000000000000000000000000000000000000000000010000000000000000000000000000000000000000000000100000000000004",
      "type": "0x2",
      "transactionHash": "0x4cf5c8eafc79b21893bbee9aaa2db6d57854b1b8c8aa9f85b8c1fea94ed256fe",
      "transactionIndex": "0x2",
      "blockHash": "0xa75a7fbb4361b2f5aae979db5b8c7707c67661b2cb1dafeb6bab445e34b3bb9a",
      "blockNumber": "0xcd99591",
      "gasUsed": "0x95b5",
      "effectiveGasPrice": "0x5f5e100",
      "from": "0x90f51a05bd8dac2d8a5b10c2930bd8415416515a",
      "to": "0x75faf114eafb1bdbe2f0316df893fd58ce46aa4d",
      "contractAddress": null,
      "gasUsedForL1": "0x0",
      "l1BlockNumber": "0x930dcf",
      "timeboosted": false
    },
    {
      "status": "0x1",
      "cumulativeGasUsed": "0x13780",
      "logs": [
        {
          "address": "0x844bc19aeb38436131c2b4893f5e0772162f67d6",
          "topics": [
            "0xddf252ad1be2c89b69c2b068fc378daa952ba7f163c4a11628f55a4df523b3ef",
            "0x0000000000000000000000000000000000000000000000000000000000000000",
            "0x00000000000000000000000090f51a05bd8dac2d8a5b10c2930bd8415416515a"
          ],
          "data": "0x0000000000000000000000000000000000000000000000000000000000000000",
          "blockHash": "0x905d1e493f9ba92534a51b9f1c2884205304f1ce1c5afea395888967d3b84729",
          "blockNumber": "0xcd9959c",
          "blockTimestamp": "0x6918e5c6",
          "transactionHash": "0x98ecee933ec74a0974278f700e6941b2a8fb6203accd58d89aaa22cffb313063",
          "transactionIndex": "0x1",
          "logIndex": "0x0",
          "removed": false
        },
        {
          "address": "0x844bc19aeb38436131c2b4893f5e0772162f67d6",
          "topics": [
            "0xa0c6ff14cb80ab9c9fd8e115a2ea6bfa11edd7861096df779289e419d96a343a"
          ],
          "data": "0x00000000000000000000000000000000000000000000000000000000000000030000000000000000000000000000000000000000000000000000000000000000",
          "blockHash": "0x905d1e493f9ba92534a51b9f1c2884205304f1ce1c5afea395888967d3b84729",
          "blockNumber": "0xcd9959c",
          "blockTimestamp": "0x6918e5c6",
          "transactionHash": "0x98ecee933ec74a0974278f700e6941b2a8fb6203accd58d89aaa22cffb313063",
          "transactionIndex": "0x1",
          "logIndex": "0x1",
          "removed": false
        },
        {
          "address": "0x75faf114eafb1bdbe2f0316df893fd58ce46aa4d",
          "topics": [
            "0xddf252ad1be2c89b69c2b068fc378daa952ba7f163c4a11628f55a4df523b3ef",
            "0x00000000000000000000000090f51a05bd8dac2d8a5b10c2930bd8415416515a",
            "0x000000000000000000000000844bc19aeb38436131c2b4893f5e0772162f67d6"
          ],
          "data": "0x00000000000000000000000000000000000000000000000000000000007a1200",
          "blockHash": "0x905d1e493f9ba92534a51b9f1c2884205304f1ce1c5afea395888967d3b84729",
          "blockNumber": "0xcd9959c",
          "blockTimestamp": "0x6918e5c6",
          "transactionHash": "0x98ecee933ec74a0974278f700e6941b2a8fb6203accd58d89aaa22cffb313063",
          "transactionIndex": "0x1",
          "logIndex": "0x2",
          "removed": false
        },
        {
          "address": "0x844bc19aeb38436131c2b4893f5e0772162f67d6",
          "topics": [
            "0xddf252ad1be2c89b69c2b068fc378daa952ba7f163c4a11628f55a4df523b3ef",
            "0x0000000000000000000000000000000000000000000000000000000000000000",
            "0x00000000000000000000000090f51a05bd8dac2d8a5b10c2930bd8415416515a"
          ],
          "data": "0x0000000000000000000000000000000000000000000000000000000000000000",
          "blockHash": "0x905d1e493f9ba92534a51b9f1c2884205304f1ce1c5afea395888967d3b84729",
          "blockNumber": "0xcd9959c",
          "blockTimestamp": "0x6918e5c6",
          "transactionHash": "0x98ecee933ec74a0974278f700e6941b2a8fb6203accd58d89aaa22cffb313063",
          "transactionIndex": "0x1",
          "logIndex": "0x3",
          "removed": false
        },
        {
          "address": "0x844bc19aeb38436131c2b4893f5e0772162f67d6",
          "topics": [
            "0xdcbc1c05240f31ff3ad067ef1ee35ce4997762752e3a095284754544f4c709d7",
            "0x00000000000000000000000090f51a05bd8dac2d8a5b10c2930bd8415416515a",
            "0x00000000000000000000000090f51a05bd8dac2d8a5b10c2930bd8415416515a"
          ],
          "data": "0x00000000000000000000000000000000000000000000000000000000007a12000000000000000000000000000000000000000000000000000000000000000000",
          "blockHash": "0x905d1e493f9ba92534a51b9f1c2884205304f1ce1c5afea395888967d3b84729",
          "blockNumber": "0xcd9959c",
          "blockTimestamp": "0x6918e5c6",
          "transactionHash": "0x98ecee933ec74a0974278f700e6941b2a8fb6203accd58d89aaa22cffb313063",
          "transactionIndex": "0x1",
          "logIndex": "0x4",
          "removed": false
        }
      ],
      "logsBloom": "0x0000000000000000000080000000000000000000000000000000000000000000000000000000000000000000000000000000000000000020000400000000000080400040000000000000000800000000000000000000000000000000000000000001000003000000000000000000080000000000000400000000001000000000000000000000000000008000000000000000080000000000000000000000000000000000000000000000000000200000000000000000000000000000000000000000000200000000000000000000000000000000000800000000000000002000000000000000000000000000000000000000000000000100010000000000000c",
      "type": "0x2",
      "transactionHash": "0x98ecee933ec74a0974278f700e6941b2a8fb6203accd58d89aaa22cffb313063",
      "transactionIndex": "0x1",
      "blockHash": "0x905d1e493f9ba92534a51b9f1c2884205304f1ce1c5afea395888967d3b84729",
      "blockNumber": "0xcd9959c",
      "gasUsed": "0x13780",
      "effectiveGasPrice": "0x5f5e100",
      "from": "0x90f51a05bd8dac2d8a5b10c2930bd8415416515a",
      "to": "0x844bc19aeb38436131c2b4893f5e0772162f67d6",
      "contractAddress": null,
      "gasUsedForL1": "0x0",
      "l1BlockNumber": "0x930dd0",
      "timeboosted": false
    }
  ],
  "libraries": [],
  "pending": [],
  "returns": {},
  "timestamp": 1763239415,
  "chain": 421614,
  "commit": "4aac2c8"
}