{
  "transactions": [
    {
      "hash": "0x61f11600b0c45049aaf2ac328ae49d85402f9338cd01e37324d3b9707dba2bd5",
      "transactionType": "CALL",
      "contractName": null,
      "contractAddress": "0x844bc19aeb38436131c2b4893f5e0772162f67d6",
      "function": "setUniswapConfig(address,address,address)",
      "arguments": [
        "0xB5AD58CBcc1a9DB06A9852b20aEc95FF3ba56F3a",
        "0x6b2937Bde17889EDCf8fbD8dE31C3C2a70Bc4d65",
        "0xE592427A0AEce92De3Edee1F18E0157C05861564"
      ],
      "transaction": {
        "from": "0x90f51a05bd8dac2d8a5b10c2930bd8415416515a",
        "to": "0x844bc19aeb38436131c2b4893f5e0772162f67d6",
        "gas": "0x21905",
        "value": "0x0",
        "input": "0x25e445e4000000000000000000000000b5ad58cbcc1a9db06a9852b20aec95ff3ba56f3a0000000000000000000000006b2937bde17889edcf8fbd8de31c3c2a70bc4d65000000000000000000000000e592427a0aece92de3edee1f18e0157c05861564",
        "nonce": "0x14",
        "chainId": "0x66eee"
      },
      "additionalContracts": [],
      "isFixedGasLimit": false
    }
  ],
  "receipts": [
    {
      "status": "0x1",
      "cumulativeGasUsed": "0x4a742",
      "logs": [
        {
          "address": "0x844bc19aeb38436131c2b4893f5e0772162f67d6",
          "topics": [
            "0x2d2ef1c673f4132fe59d801ab0172c963d940023c0366ec147ecf60143429119",
            "0x000000000000000000000000b5ad58cbcc1a9db06a9852b20aec95ff3ba56f3a",
            "0x0000000000000000000000006b2937bde17889edcf8fbd8de31c3c2a70bc4d65",
            "0x000000000000000000000000e592427a0aece92de3edee1f18e0157c05861564"
          ],
          "data": "0x",
          "blockHash": "0xb556e41712e050205a02207b2469c17b478f27712612464049e05d683888419e",
          "blockNumber": "0xcd9937e",
          "blockTimestamp": "0x6918e53d",
          "transactionHash": "0x61f11600b0c45049aaf2ac328ae49d85402f9338cd01e37324d3b9707dba2bd5",
          "transactionIndex": "0x3",
          "logIndex": "0x2",
          "removed": false
        }
      ],
      "logsBloom": "0x00000002000000000000000000000000000000000000000002000000000000000000000000000000000000000000000000000000000000200000000001000000000000000000000000000000000001000000800000000000000000000000000000000000000000000000100000000000000000000000000000000000000000000000000000000000000000000000000000000800000000000000000000000000000000000000000000000000802800000000000000400000000000000000000000000000400000000000000000000000000000800000000000000000000000000000000000000000000000000000010000000000000000000000000000000000",
      "type": "0x2",
      "transactionHash": "0x61f11600b0c45049aaf2ac328ae49d85402f9338cd01e37324d3b9707dba2bd5",
      "transactionIndex": "0x3",
      "blockHash": "0xb556e41712e050205a02207b2469c17b478f27712612464049e05d683888419e",
      "blockNumber": "0xcd9937e",
      "gasUsed": "0x19931",
      "effectiveGasPrice": "0x5f5e100",
      "from": "0x90f51a05bd8dac2d8a5b10c2930bd8415416515a",
      "to": "0x844bc19aeb38436131c2b4893f5e0772162f67d6",
      "contractAddress": null,
      "gasUsedForL1": "0x0",
      "l1BlockNumber": "0x930dc5",
      "timeboosted": false
    }
  ],
  "libraries": [],
  "pending": [],
  "returns": {},
  "timestamp": 1763239277,
  "chain": 421614,
  "commit": "4aac2c8"
}